:020000040800F2
:100000000080012069020008B9020008B902000856
:10001000B9020008B9020008B90200080000000097
:10002000000000000000000000000000B90200080D
:10003000B902000800000000B9020008D508000855
:1000400000000000B9020008B9020008B902000867
:10005000B9020008B9020008B9020008B902000894
:10006000B9020008B9020008B90200080000000047
:100070000000000000000000000000000000000080
:100080000000000000000000B902000800000000AD
:10009000000000000000000000000000B90200089D
:1000A000B9020008B9020008B9020008B902000844
:1000B000B9020008B9020008B9020008B902000834
:1000C000B9020008B9020008B9020008B902000824
:1000D000B9020008B9020008B902000800000000D7
:1000E000B9020008B9020008B902000800000000C7
:1000F0000000000000000000000000000000000000
:1001000000000000B9020008B9020008B9020008A6
:1001100000000000000000000000000000000000DF
:1001200000000000000000000000000000000000CF
:1001300000000000000000000000000000000000BF
:10014000000000000000000000000000B9020008EC
:10015000000000000000000000000000B9020008DC
:10016000B9020008B9020008000000000000000009
:10017000000000000000000000000000000000007F
:1001800000000000B90200080000000000000000AC
:04019000B9020008A8
:1001940010B5054C237833B9044B13B10448AFF3BD
:1001A40000800123237010BD2800002000000000FF
:1001B400C031000808B5034B1BB103490348AFF332
:1001C400008008BD000000002C000020C0310008A1
:1001D40080B582B002AF00F0A5F800F0BBF90021B1
:1001E4001B4800F0EDFC1A4800F031FD194918488D
:1001F40001F046FEFF230093FF23FF220021144851
:1002040001F01DFF00230093002300220121104868
:1002140001F015FF0E4802F00DF80F4B0093002378
:100224000C2200210A4801F067FD0C4B00930023C7
:100234000C220021064801F05FFD094B00930023C6
:100244001A220021024801F057FD00F063FAFCE78E
:1002540044000020E8320008D8310008E0310008EA
:10026400E43100080D48854600F026F80C480D4995
:100274000D4A002302E0D458C4500433C4188C42FD
:10028400F9D30A4A0A4C002301E013600432A24263
:10029400FBD302F06FFFFFF79BFFFEE70080012016
:1002A4000000002028000020603D000828000020F5
:1002B4009C120020FEE7000080B500AF164BD3F877
:1002C4008830154A43F47003C2F88830134B1B6816
:1002D400124A43F001031360104B00229A600F4B43
:1002E4001B680E4A23F0847323F4803313600B4B92
:1002F4000B4A5A60094B1B68084A23F48023136095
:10030400064B0022DA6000F089F8034B4FF00062DC
:100314009A6000BF80BD00BF00ED00E000380240DD
:100324001030002480B487B000AF00233B61002369
:100334007B610223FB600023BB6002237B60324BA2
:100344009B6803F00C033B613B69042B07D0082B2B
:1003540009D0002B3DD12D4B2D4A1A603DE02B4B8B
:100364002C4A1A6039E0284B5B689B0D03F00103AB
:10037400BB60254B5B6803F03F037B60BB68002BCD
:100384000CD0244A7B68B2FBF3F31F4A52689209EB
:10039400C2F3080202FB03F37B610BE01C4A7B6897
:1003A400B2FBF3F3184A52689209C2F3080202FB43
:1003B40003F37B61144B5B681B0C03F003030133F1
:1003C4005B00FB607A69FB68B2FBF3F30F4A1360CE
:1003D40003E00E4B0E4A1A6000BF0B4B9B681B09CF
:1003E40003F00F030C4AD35CDBB23B61074B1A6882
:1003F4003B6922FA03F3054A136000BF1C37BD466C
:100404005DF8047B704700BF003802400000002004
:100414000024F40040787D010400002080B400AF83
:10042400224B1B6C214A43F080531364204B1B68FE
:100434001F4A43F4404313601C4B1C4A9B6893605F
:100444001A4B1A4A9B689360184B9B68174A43F4EB
:1004540080539360154B174A5A60144B1B68134A18
:1004640043F08073136000BF104B1B6803F00073EC
:10047400002BF9D0104B40F202621A600B4B9B68C0
:100484000A4A23F003039360084B9B68074A43F02E
:100494000203936000BF054B9B6803F00C03082B19
:1004A400F9D100BFBD465DF8047B704700380240B7
:1004B4000070004010540108003C024080B483B036
:1004C40000AF03463960FB7197F90730002B0BDA54
:1004D4003B68DAB20C49FB7903F00F03043B1201C9
:1004E400D2B20B441A7609E03B68DAB2074997F9AD
:1004F40007301201D2B20B4483F8002300BF0C373B
:10050400BD465DF8047B704700ED00E000E100E0CB
:1005140080B582B000AF78607B68013BB3F1807F27
:1005240001D301230FE00A4A7B68013B53600F218A
:100534004FF0FF30FFF7C2FF054B00229A60044BD7
:1005440007221A60002318460837BD4680BD00BF45
:1005540010E000E080B584B000AF3B46184602F0DE
:1005640039F83B680A4AA2FB03239B091846FFF7A4
:10057400CFFF01214FF0FF30FFF7A0FF4FF4C0720F
:100584000021044801F066FF00BF1037BD4680BD5E
:10059400D34D6210F800002090B587B000AFF8602A
:1005A400B9603B601346FB710023FB754CE0FA7D98
:1005B400294913465B001344DB000B4410331B68CA
:1005C400002B3ED1FA7D244913465B001344DB0023
:1005D4000B44FA681A60FA7D1F4913465B00134402
:1005E400DB000B4410333A681A60FA7D1A4913464B
:1005F4005B001344DB000B440C33FA791A70FA7D68
:10060400154913465B001344DB000B441433BA6AE8
:100614001A60FC7D00F072F801460F4A23465B0025
:100624002344DB00134404331960FA7D0A4913465A
:100634005B001344DB000B440833BA681A60FB7D8B
:1006440006E0FB7D0133FB75FB7D0F2BAFD9FF2348
:1006540018461C37BD4690BDF800002080B483B016
:1006640000AF0346FB71FB790F2B0AD8FA792249B4
:1006740013465B001344DB000B4410331B68002B50
:1006840001D1002331E0FA791B4913465B0013447E
:10069400DB000B4400221A60FA79174913465B0009
:1006A4001344DB000B44103300221A60FA79124918
:1006B40013465B001344DB000B440C3300221A7016
:1006C400FA790D4913465B001344DB000B440833ED
:1006D40000221A60FA79084913465B001344DB00D0
:1006E4000B44043300221A60012318460C37BD461C
:1006F4005DF8047B704700BFF800002080B400AFB1
:10070400034B1B681846BD465DF8047B704700BF69
:100714007802002080B584B000AF0023FB7368E04A
:10072400FA7B374913465B001344DB000B44103358
:100734001B68002B5AD0FB7B184600F063F8034675
:10074400002B53D0FA7B2E4913465B001344DB0085
:100754000B4410331B68BB60FA7B294913465B00CA
:100764001344DB000B4414331B687B60FA7B24497D
:1007740013465B001344DB000B440C331B78DBB2E1
:10078400FF2B20D0FA7B1E4913465B001344DB0089
:100794000B440C331B78DBB2002B14D0FA7B1849C2
:1007A40013465B001344DB000B440C331B78DBB2B1
:1007B400013BD8B2124913465B001344DB000B44DF
:1007C4000C3302461A70FA7B0D4913465B0013443E
:1007D400DB000B440C331B78DBB2002B03D1FB7B17
:1007E4001846FFF73BFFBB6878689847FB7B0133EB
:1007F400FB73FB7B0F2B93D900BF1037BD4680BD25
:10080400F800002080B584B000AF0346FB710023DC
:10081400FB6072B6FFF772FFB860FB790F2B0AD842
:10082400FA792A4913465B001344DB000B44103366
:100834001B68002B02D162B6002342E0FA792349F7
:1008440013465B001344DB000B4404331B68BA6893
:100854009A420CD3FA791D4913465B001344DB001A
:100864000B4404331B68BA68D31AFB600EE0FA79B0
:10087400164913465B001344DB000B4404331A6827
:10088400BB68D31AFB60FB68DB43FB60FA790F4952
:1008940013465B001344DB000B4408331B68FA68FF
:1008A4009A4202D262B600230BE0FA790749134652
:1008B4005B001344DB000B440433BA681A6062B66D
:1008C400012318461037BD4680BD00BFF800002044
:1008D40080B400AF044B1B680133034A136000BFAC
:1008E400BD465DF8047B70477802002080B483B075
:1008F40000AF786000BF0C37BD465DF8047B7047DD
:1009040080B582B000AF0121072001F00BFF012365
:100914003B7103237B710023BB710023FB714FF4F4
:1009240068733B603B4619460A4801F0ACFD4FF43E
:1009340088633B603B461946074801F0A4FD8023C9
:100944003B603B461946054801F09DFD00BF083752
:10095400BD4680BD00000240000402400008024081
:1009640080B584B000AF78600B46FB700823FB733E
:1009740097F90330002B05DA01228021144801F095
:1009840010FE04E000228021114801F00AFE01203B
:10099400FFF7ACFF012220210D4801F002FE0120E7
:1009A400FFF7A4FFFB7B013BFB73002220210848D7
:1009B40001F0F7FD0120FFF799FFFB785B00FB7066
:1009C400FB7B002BD4D100BF1037BD4680BD00BFD8
:1009D4000000024080B584B000AFF8607B600B4635
:1009E4007B8113463B81B7F90A300A3B0B2B00F29B
:1009F400DC8001A252F823F02D0A0008AF0B000896
:100A04007F0A0008890A0008990A0008A90A000850
:100A1400BB0A0008DB0A0008030B0008390B0008B6
:100A2400570B0008A70B0008FFF76AFF012280217B
:100A3400604801F0B6FD012240215F4801F0B1FD9C
:100A4400012280215D4801F0ACFD01224FF40071C8
:100A5400584801F0A6FD00222021564801F0A1FDCE
:100A640001224FF48061544801F09BFD01224FF4B0
:100A74008071504801F095FD97E03B891846FFF7D7
:100A840035FF92E03B89DBB21A4680214B4801F0E6
:100A940088FD8AE03B89DBB21A464021464801F0D2
:100AA40080FD82E03B89DBB21A464FF40071414875
:100AB40001F077FD79E03B89DBB21946F868FFF76E
:100AC4004FFF72E07B681B781946F868FFF748FF10
:100AD4003B89013B3B813B89002BF3D165E07B687B
:100AE4001B781946F868FFF73BFF7B6801331B78D6
:100AF4001946F868FFF734FF3B89013B3B813B898A
:100B0400002BECD151E07B681B781946F868FFF79D
:100B140027FF7B6801331B781946F868FFF720FF2D
:100B24007B6802331B781946F868FFF719FF3B8985
:100B3400013B3B813B89002BE5D136E07B685A1CA5
:100B44007A601B781946F868FFF70AFF3B89013B76
:100B54003B813B89002BF1D127E07B681B78002B7C
:100B640010D07B681B78012B06D100224FF4007152
:100B7400104801F016FD05E001224FF400710D4804
:100B840001F00FFD7B6801337B607B681B7819469D
:100B9400F868FFF7E5FE7B6801337B603B89013B26
:100BA4003B813B89002BD8D100BF01231846103765
:100BB400BD4680BD0000024000040240000802401F
:100BC40080B582B000AF78600B46FB70074B084AD3
:100BD4000849786801F0A2F9FB781946786800F0B2
:100BE40086FF00BF0837BD4680BD00BFD909000895
:100BF400311200085913000880B584B000AFF860C2
:100C0400084611461A4603467B810B463B81134630
:100C1400FB8014E0B7F90630B7F90820B7F90A10D9
:100C2400F86801F0EDF9B7F918309BB2013B9BB2BB
:100C34003B83B7F908309BB201339BB23B81B7F9D0
:100C44001830002BE6DC00BF1037BD4680BD80B5F0
:100C540084B002AF786000230093002300220021B7
:100C6400786801F0ECF9786800F03BFB7B68B3F935
:100C740002207B68B3F9043000931346002200215C
:100C84007868FFF7B9FFFF230093FF23FF220021B9
:100C9400786801F0D4F900BF0837BD4680BD80B440
:100CA40083B000AF7860084611461A460346FB70CD
:100CB4000B46BB7013463B807B68FA785A70BB784E
:100CC4009AB2FB789BB2D31A9BB21AB27B689A8011
:100CD4003B88013B9BB21AB27B681A817B68012274
:100CE4005A807B68B3F904301A467B68B3F908303C
:100CF40092FBF3F31AB27B68DA807B68B3F90430B1
:100D0400002B0CDA7B68B3F904309BB25B429BB2D4
:100D14001AB27B689A807B684FF6FF725A807B68B0
:100D2400B3F904307A68B2F9082093FBF2F102FBBC
:100D340001F29B1A1AB27B685A817B68B3F90830B6
:100D4400DA0F13445B101AB27B689A817B68FA78D5
:100D54001A7000BF0C37BD465DF8047B704780B441
:100D640083B000AF78607B681A787B68B3F906308B
:100D7400DBB21344DAB27B681A707B68B3F90C30C7
:100D84009AB27B68B3F90A309BB213449BB21AB28D
:100D94007B689A817B68B3F90C207B68B3F90830CF
:100DA4009A4216DB7B681A787B68B3F90230DBB2AF
:100DB4001344DAB27B681A707B68B3F90C309AB2C8
:100DC4007B68B3F908309BB2D31A9BB21AB27B6822
:100DD4009A8100BF0C37BD465DF8047B704780B430
:100DE40085B000AF78600B467B807B68B3F9063032
:100DF400DAB27B681A707B681A787B88DBB212FBE4
:100E040003F3DAB27B681A707B68B3F90A309AB2DA
:100E14007B8812FB03F39AB27B68B3F90830D90FCD
:100E24000B445B101BB29BB213449BB2FB817B68E7
:100E3400B3F90230002B0EDB7B681A78B7F90E3059
:100E44007968B1F9081093FBF1F3DBB21344DAB219
:100E54007B681A700DE07B681A78B7F90E307968F0
:100E6400B1F9081093FBF1F3DBB2D31ADAB27B6861
:100E74001A70B7F90E307A68B2F9082093FBF2F1D0
:100E840002FB01F29B1A1AB27B689A817B681A787A
:100E94007B685B781344DAB27B681A7000BF14373E
:100EA400BD465DF8047B704780B584B000AFF86040
:100EB4000B467A607B81B7F90A300C2B0AD0172BCA
:100EC4000FD1FB68DB68B7F90A107A68F8689847AD
:100ED400034607E0FB687A6870331068516803C3FF
:100EE40000BF012318461037BD4680BD80B485B0CD
:100EF40000AFF8600B467A607B81012318461437F3
:100F0400BD465DF8047B704790B585B000AF78604E
:100F1400786801F0C5FC0346002B53D07B68B3F915
:100F24002E30012B08D0022B0BD0002B1BD12849CB
:100F3400786801F0E3FF28E02649786801F0DEFFD5
:100F440023E07B689B8CFB81FB89C3F17F039BB20D
:100F54001AB27B689A842049786801F0CFFF7B68D5
:100F6400FA899A8411E07B68DB8CFB81FB89C3F1ED
:100F74007F039BB21AB27B68DA841849786801F05F
:100F8400BDFF7B68FA89DA8400BF7B6893F8283058
:100F94003B727B6893F829307B727B6893F82A3024
:100FA400BB727B68DC697B68B3F92C309AB207F1B9
:100FB400080313217868A0470121786801F0EAFE4C
:100FC400012300E0002318461437BD4690BD00BF3E
:100FD40028320008483200086C32000890320008B9
:100FE40090B587B000AF78600023FB751AE07B688A
:100FF40003F14601FA7D1346DB009B1A5B00C81817
:10100400FB7D7A68134493F83A10FB7D7A681344A5
:1010140093F83D207B68B3F92C30FFF740FEFB7D4D
:101024000133FB75FB7D022BE1D9786801F0B8FD33
:101034000346002B71D07B68B3F92E30012B08D006
:10104400022B0BD0002B1BD13649786801F056FFD8
:1010540028E03549786801F051FF23E07B689B8CD8
:101064007B827B8AC3F17F039BB21AB27B689A842A
:101074002E49786801F042FF7B687A8A9A8411E0ED
:101084007B68DB8C7B827B8AC3F17F039BB21AB2C1
:101094007B68DA842649786801F030FF7B687A8AB5
:1010A400DA8400BF0023BB822AE07B6893F84630D1
:1010B4003B737B6893F854307B737B6893F862309E
:1010C400BB737B68DC6907F10C0301221321786888
:1010D400A0477B6846331846FFF741FE7B684633DA
:1010E4000E331846FFF73BFE7B6846331C33184625
:1010F400FFF735FEB7F914309BB201339BB2BB82C4
:101104007B68B3F92C30B7F914209A42CDDB012166
:10111400786801F03FFE012300E0002318461C37E5
:10112400BD4690BD28320008483200086C320008E1
:101134009032000890B587B000AFF8600B467A6033
:101144007B81B7F90A300A3B0B2B5FD801A252F816
:1011540023F000BF89110008A31100081112000830
:101164001112000811120008AF1100081112000832
:10117400111200081112000811120008BF11000812
:1011840007120008FB6802221A84FB6801225A84B1
:1011940042226421F86801F04CFD03463EE02149F7
:1011A400F86801F0ABFE012338E07B6880221A80E6
:1011B4007B6880225A80012330E0F86801F056FBF6
:1011C4000346002B1BD01849F86801F097FEFB6812
:1011D40093F828303B75FB6893F829307B75FB68DE
:1011E40093F82A30BB75FB68DC6907F1140301220C
:1011F4001321F868A0470121F86801F0CBFD012311
:101204000CE0F868FFF780FE012307E0B7F90A3025
:101214007A681946F868FFF747FE034618461C37F4
:10122400BD4690BDB43200080832000880B584B0D1
:1012340000AFF8600B467A607B81B7F90A30172B50
:1012440003D1F868FFF7CCFE00BF0123184610371E
:10125400BD4680BD80B582B000AF78607B681B78E6
:1012640003F00103DBB2002B0AD07B689B680022E9
:101274000B21786898477A6813786FF3000313702A
:1012840000BF0837BD4680BD80B584B000AF78602C
:101294007868FFF7DFFF7B689B6800220A21786883
:1012A40098470346FB81B7F90E30002B04D07A68C7
:1012B400137843F001031370B7F90E301846103752
:1012C400BD4680BD80B582B000AF786039607B6870
:1012D4009B683A680C217868984700BF0837BD4678
:1012E40080BD80B584B000AF78607A6807F10C03E4
:1012F40002321068186000233B8100237B8107F1D0
:10130400080319467868FFF7DDFF00BF1037BD46B4
:1013140080BD80B582B000AF78607B689B687A68D6
:1013240002320F21786898477868FFF7DAFF00BF28
:101334000837BD4680BD80B582B000AF78607B6859
:101344009B687A68243215217868984700BF08376B
:10135400BD4680BD80B584B000AFF8600B467A60AE
:101364007B81B7F90A300B2B15D00F2B1CD00A2B1D
:1013740022D1B7F90A307A681946F868FFF7DAFE1D
:101384000346002B01D100231EE01149F86801F047
:10139400B5FD012318E0B7F90A307A681946F868F0
:1013A400FFF7C8FE03460FE07B6880221A807B6843
:1013B40080225A80012307E0B7F90A307A68194677
:1013C400F868FFF7B7FE034618461037BD4680BDE0
:1013D400BC32000880B483B000AF78600B46FB7069
:1013E400FB787A6813447B607B681B7818460C375B
:1013F400BD465DF8047B704780B485B000AF78606B
:101404000B46FB70FB787A6813447B607B681B781F
:10141400FB817B6801337B60FB891B02FB817B685A
:101424001B789AB2FB891344FB81FB891846143755
:10143400BD465DF8047B704780B582B000AF78602C
:10144400396000213868FFF7C5FF03461A467B68F8
:101454001A7001213868FFF7BDFF03461A467B68FE
:101464005A7002213868FFF7B5FF03461A467B68B5
:101474009A7003213868FFF7ADFF03461A467B686C
:10148400DA7004213868FFF7A5FF03461A467B6823
:101494001A7105213868FFF79DFF03461A467B68D9
:1014A4005A7106213868FFF795FF03461A467B6890
:1014B4009A7107213868FFF78DFF03461A467B6847
:1014C400DA7108213868FFF785FF03461A467B68FE
:1014D4001A7209213868FFF77DFF03465AB27B6808
:1014E4005A720A213868FFF775FF03465AB27B68BF
:1014F4009A720B213868FFF76DFF03465AB27B6876
:10150400DA720C213868FFF765FF03465AB27B682C
:101514001A730D213868FFF75DFF03465AB27B68E2
:101524005A730E213868FFF755FF03465AB27B6899
:101534009A730F213868FFF74DFF03465AB27B6850
:10154400DA7310213868FFF745FF03465AB27B6807
:101554001A7411213868FFF74FFF03461A467B6857
:101564005A8213213868FFF747FF03461A467B68FF
:101574009A8200BF0837BD4680BD80B485B000AFF5
:1015840078600B46FB707B681B7B7B737B681B68F6
:101594001B78FB73FA7B7B7B42FA03F3FB737B7B45
:1015A400BB73BA7BFB781344BB73BB7B072B1AD981
:1015B40008233B733A7B7B7BD31A3B737B681B68A2
:1015C4005A1C7B681A607B681B681B781A463B7B35
:1015D40002FA03F35AB297F90F3013435BB2FB7369
:1015E400BB7B083BBB73FB784FF0FF3202FA03F37B
:1015F400DBB2DB43DAB2FB7B1340FB737B68BA7B61
:101604001A73FB7B18461437BD465DF8047B70479C
:1016140080B584B000AF78600B46FB70FB78194648
:101624007868FFF7AAFF0346FB730123BB73FB78BB
:10163400013BFB7097F90E20FB7802FA03F3BB73AE
:10164400FA7BBB7BD31ADBB2FB7397F90F301846D6
:101654001037BD4680BD90B482B000AF0446084642
:1016640011461A462346FB8003467B710B463B71A9
:101674001346FB70FB78012B0BD0022B11D0002BEF
:1016840017D197F904309AB2FB8813449BB2FB80BC
:1016940017E097F905309AB2FB8813449BB2FB809C
:1016A4000FE0FA8897F904309BB2D31A9BB2FB80FF
:1016B40007E0FA8897F905309BB2D31A9BB2FB80F6
:1016C40000BFB7F9063018460837BD4690BC7047CE
:1016D40090B482B000AF0446084611461A46234629
:1016E400FB8003467B710B463B711346FB70FB7812
:1016F400012B0BD0022B11D0002B17D197F90530F9
:101704009AB2FB8813449BB2FB8017E0FA8897F9DE
:1017140004309BB2D31A9BB2FB800FE0FA8897F98E
:1017240005309BB2D31A9BB2FB8007E097F90430D3
:101734009AB2FB8813449BB2FB8000BFB7F9063012
:1017440018460837BD4690BC704790B589B002AFC3
:1017540078600B46FB701346BB707B6880333B613B
:10176400FB78FB753B6993F908307B753B6993F90A
:1017740009303B753B6993F90A30FB73FA7B7B7D37
:10178400D31AFB73FB7BBB75FA7DFB7B9A4201D2B8
:10179400FB7DBB753B699B88BB813B69DB887B8197
:1017A40097F9151097F914203B699B7BB7F90C0046
:1017B400FFF78EFF0346BB8197F9151097F91420A4
:1017C4003B699B7BB7F90A00FFF745FF03467B8122
:1017D400BB78002B11D0BB7D1CB23B699B7B1BB239
:1017E400B7F90A00B7F90C100022019200932346BE
:1017F4000246786800F0C0FB14E03B695B7B002B79
:1018040010D1BB7D1CB23B699B7B1BB2B7F90A00AC
:10181400B7F90C100122019200932346024678681E
:1018240000F0AAFBFA7DFB7B9A4209D3FA7DFB7B8D
:10183400D31AFB7500237B753B7D01333B7599E718
:1018440000BF7A7DFB7D13447B7597F915203B69B6
:101854001A7297F914203B695A7200BF1C37BD46AF
:1018640090BD80B584B000AF786039607B68803308
:10187400FB60FB683A681A60FB6800221A73FB6815
:101884001B685A1CFB681A60FB681B685A1CFB68BF
:101894001A607B6893F894301946F868FFF76DFE78
:1018A40003465AB2FB689A727B6893F895301946DE
:1018B400F868FFF762FE03465AB2FB68DA7200BFAB
:1018C4001037BD4680BD80B584B000AF7860396004
:1018D40039687868FFF7C5FF7B6893F88B30FB7332
:1018E4007B6803F180027B6893F8963019461046B2
:1018F400FFF78EFE0346BB737B6803F180027B68AF
:1019040093F8973019461046FFF782FE03467B731F
:101914007B6803F180027B6893F89830194610467F
:10192400FFF776FE03463B737B6893F98A30002BFE
:1019340069DD7B68B3F98400FA7B7B7B1344DBB2FB
:101944005B42DBB25AB27B6893F88E3097F90E1083
:10195400FFF7BEFE03461A467B68A3F884207B6823
:10196400B3F98600FA7B7B7B1344DBB25B42DBB2C8
:101974005AB27B6893F88E3097F90E10FFF76BFE1E
:1019840003461A467B68A3F886207B68002283F806
:1019940088207B68002283F889207B6803F1800219
:1019A4007B6893F8923019461046FFF7E6FD03462C
:1019B400FB727B6803F180027B6893F893301946CD
:1019C4001046FFF7DAFD0346BB72FB7A0022194684
:1019D4007868FFF7BAFEBB7A012219467868FFF7E8
:1019E400B4FE7B68803301211846FFF7C6FD034629
:1019F400002BEAD17B6893F9893097F90F209A423A
:101A040000DDCAE700BF97F90C3018461037BD4611
:101A140080BD80B485B000AF78600B46FB707B68F6
:101A24009B6FFB60FB681533FB60FB78602B07D969
:101A34007B68B3F8A4301A46FB681344FB6009E0E2
:101A4400FB78402B06D97B68B3F8A2301A46FB68B2
:101A54001344FB60FB6801331B78002B0ED0FB683A
:101A64001B78FA789A4201D1FB6809E0FB680133DC
:101A74001B781A46FB681344FB60EBE700BF0023A6
:101A840018461437BD465DF8047B704780B586B0B0
:101A940000AFF860084611461A4603467B810B46A0
:101AA4003B811346FB710023FB82FB687A89A3F810
:101AB4008420FB683A89A3F88620FB68FA7983F8C6
:101AC4008E2097F820301946F868FFF7A2FF386196
:101AD4003B69002B05D03969F868FFF7F4FE03462B
:101AE400FB82B7F9163018461837BD4680BD80B45E
:101AF40083B000AF78600B46FB707B68FA7883F89C
:101B04008D2000BF0C37BD465DF8047B7047000094
:101B140080B586B002AFF860084611461A460346FF
:101B24007B810B463B811346FB71FB79032B37D832
:101B340001A252F823F000BF4D1B0008631B0008EC
:101B4400791B00088F1B0008FB68DB6FF868984757
:101B540003469AB23B8913449BB23B8120E0FB6865
:101B6400DB6FF868984703467A899BB2D31A9BB215
:101B74007B8115E0FB68DB6FF868984703463A8978
:101B84009BB2D31A9BB23B810AE0FB68DB6FF86817
:101B9400984703469AB27B8913449BB27B8100BF6A
:101BA400F879B7F90820B7F90A103B7E0093034689
:101BB400F868FFF76BFF034618461037BD4680BD33
:101BC40080B586B002AF78600023FB817B68BB6080
:101BD400454B1B78002B02D0012B1ED07BE04348E1
:101BE40000F05DFB0346002B07D041493F4800F05D
:101BF400EFFB3D4B01221A7071E03E4B1B78FF2B2B
:101C040007D03C4B1B781846FEF728FD394BFF22C2
:101C14001A70354B00221A7061E0354B9B681B78B3
:101C2400002B54D0324BB3F90010314BB3F90220DE
:101C34002F4B18792E4B9B681B7800930346B8688A
:101C4400FFF766FF0346FB81294B1B79032B37D82B
:101C540001A252F823F000BF6D1C0008831C000889
:101C6400991C0008AF1C0008214BB3F900309AB24C
:101C7400FB8913449BB21AB21D4B1A8021E01C4B02
:101C8400B3F902309AB2FB8913449BB21AB2184BCF
:101C94005A8016E0164BB3F900309AB2FB89D31A76
:101CA4009BB21AB2124B1A800BE0114BB3F90230FB
:101CB4009AB2FB89D31A9BB21AB20D4B5A8000E038
:101CC40000BF0B4B9B680133094A936007E0064B46
:101CD40000221A7003E0044B00221A7000BF00BFF8
:101CE4001037BD4680BD00BF8C1200207C0200204E
:101CF400901200201400002080B58AB002AFF86072
:101D0400084611461A4603467B810B463B8113461F
:101D1400FB710023FB837B893B823B897B82FB79BC
:101D24003B75BB6ABB6107F1100319460C4800F010
:101D340001FB0C4B1B78FF2B0BD1FB6800930A4B68
:101D4400FF221E210948FEF727FC03461A46054BCD
:101D54001A70B7F91E3018462037BD4680BD00BF43
:101D64007C02002014000020C51B0008F831000884
:101D740080B483B000AF78607B689B6F002B5DD02C
:101D84007B6893F99D207B6883F8AC207B6893F98A
:101D94009E207B6883F8AD207B6893F8AB30002BE2
:101DA4004DD07B6893F8AB30012B1CD17B6893F941
:101DB400AC207B6893F99F309A4205DA7B6893F9EB
:101DC4009F207B6883F8AC207B6893F9AD207B6807
:101DD40093F9A0309A4232DD7B6893F9A0207B68A6
:101DE40083F8AD202BE07B6893F9AC301A467B680E
:101DF40093F99A3019467B6893F99C300B449A42C4
:101E04000DDA7B6893F99A30DAB27B6893F99C30E7
:101E1400DBB21344DBB25AB27B6883F8AC207B6834
:101E240093F9AD207B6893F99C309A4207DD7B6877
:101E340093F99C207B6883F8AD2000E000BF0C3749
:101E4400BD465DF8047B704780B483B000AF786012
:101E5400002318460C37BD465DF8047B704700002C
:101E640080B483B000AF78607B68044ADA6700BF4F
:101E74000C37BD465DF8047B704700BF4D1E00085B
:101E840080B582B000AF786039607B689B6F3A6838
:101E94009A4212D07B683A689A677B6890333968B3
:101EA4001846FFF7C9FA7868FFF762FF4FF48053CA
:101EB4000C220449044800F0D7F900BF0837BD4696
:101EC40080BD00BF7C0200208C02002080B483B05F
:101ED40000AF78607A6813786FF3000313707B683F
:101EE40000221A617B6801225A867B6800229A6765
:101EF4007B68012283F88D207B68002283F8AE2062
:101F04007B68002283F8AF207B68002283F8B0202E
:101F140000BF0C37BD465DF8047B704780B586B0C2
:101F240000AFF860B9607A603B60F868FFF7CEFFF5
:101F34007B68002B03D1FB680E4ADA6002E0FB6881
:101F44007A68DA60FB68BA689A60FB683A68DA61B2
:101F5400F868FFF785FFF868FFF796F90346FB82F8
:101F6400F868FFF7D6F9B7F9163018461837BD46A2
:101F740080BD00BFF10E000880B584B000AFF860EA
:101F8400084611461A4603467B810B463B8113469D
:101F9400FB80B7F91C20F96813465B0013440B441B
:101FA4003A331A78FB6883F82820B7F91C20F968BB
:101FB40013465B0013440B443B331A78FB6883F8E5
:101FC4002920B7F91C20F96813465B0013440B441D
:101FD4003C331A78FB6883F82A20FB687A899A8450
:101FE400FB683A89DA84FB68FA889A85FB683A8B3D
:101FF400DA85F868FFF79FF900BF1037BD4680BD4A
:1020040080B586B002AFF860084611461A4603460A
:102014007B810B463B811346FB80B7F90600B7F979
:102024000820B7F90A100023019300230093034604
:10203400F868FFF7A1FF00BF1037BD4680BD80B42C
:1020440083B000AF7860084611461A460346FB7019
:102054000B46BB7013467B70FA78796813465B00B5
:1020640013440B443A33BA781A70FA7879681346F1
:102074005B0013440B443B337A781A70FA7879681E
:1020840013465B0013440B443C333A7C1A7000BF84
:102094000C37BD465DF8047B704780B582B000AF55
:1020A40078607B681B69002B06D07B681A697B68A3
:1020B4009A607B6800221A617868FFF72AF97868C9
:1020C400FFF70FF900BF0837BD4680BD80B485B067
:1020D40000AF786039607B68DB8AFB81FA893B68F2
:1020E400B3F902309BB2D31A9BB2FB81B7F90E301D
:1020F4009BB2013B9BB2FB813B68FA895A807B68A7
:102104009B8ABB81BA893B68B3F900309BB2D31A6E
:102114009BB2BB81B7F90C309BB2013B9BB2BB8134
:102124003B68BA891A8000BF1437BD465DF8047B4A
:102134007047000080B584B000AFF8600B467A6049
:102144007B81B7F90A300C3B0B2B66D801A252F8FD
:1021540023F000BFA72100081F2200081F22000847
:10216400892100081F2200081F2200081F220008DE
:102174001F220008EF210008EF2100081F22000899
:10218400EF210008FB681B69FA681432B7F90A10DA
:10219400F86898477A68FB6814331868106001235C
:1021A40043E07B68B3F902309AB27B68B3F9063036
:1021B4009BB213449BB2013B9BB21AB27B685A8018
:1021C4007B68B3F900309AB27B68B3F904309BB2F0
:1021D40013449BB2013B9BB21AB27B681A807B68A2
:1021E4001946F868FFF772FF17E0FB68B3F92E3061
:1021F4009BB202339BB21AB2FB68DA85FB68B3F96F
:102204002E3003F003031AB2FB68DA85FB6824332B
:102214001946F868FFF75AFF00BFFB681B69B7F956
:102224000A107A68F8689847034618461037BD467E
:1022340080BD00BF80B582B000AF78607868FFF7DA
:102244002CFF7B689A687B681A617B68054A9A60F0
:102254007868FFF75EF87868FFF743F800BF08373F
:10226400BD4680BD3921000880B584B000AFF86058
:10227400B96011461A460B46FB711346BB80BB6816
:10228400BA881A80BB68FA791A71BB68FA68DA608E
:10229400B86800F036F800BF1037BD4680BD80B482
:1022A40083B000AF78607B685B8818460C37BD4606
:1022B4005DF8047B704780B483B000AF78607B68BE
:1022C4005A887B681B889A422CBF01230023DBB207
:1022D40018460C37BD465DF8047B704780B483B064
:1022E40000AF78607B68DA887B681B899A420CBFF0
:1022F40001230023DBB218460C37BD465DF8047B8E
:10230400704780B582B000AF78607B680022DA80C5
:102314007B6800221A817B6800225A807B68D86817
:102324007B681B881A46002100F094F800BF083728
:10233400BD4680BD80B584B000AF7860396072B6A8
:102344000023FB7321E0FB7B3A681A447B68DB685B
:102354007968C9880B4412781A707B68DB8801336A
:102364009BB21AB27B681B88013B9BB21BB2134021
:102374001BB29AB27B68DA807B685B8801339AB2BD
:102384007B685A80FB7B0133FB737B681B79FA7B88
:102394009A42D8D37868FFF78EFF0346002B11D0FA
:1023A4007B681A897B681B799BB213449BB21AB26F
:1023B4007B681B88013B9BB21BB213401BB29AB2D1
:1023C4007B681A8162B6002318461037BD4680BD6B
:1023D40080B584B000AF7860396072B67868FFF772
:1023E4007DFF0346002B05D07B6800225A8062B62D
:1023F40002232BE00023FB7321E07B68DB687A680F
:1024040012891A44FB7B39680B4412781A707B6872
:102414001B8901339BB21AB27B681B88013B9BB2B8
:102424001BB213401BB29AB27B681A817B685B882B
:10243400013B9AB27B685A80FB7B0133FB737B6858
:102444001B79FA7B9A42D8D362B600231846103718
:10245400BD4680BD80B483B000AF78600B46FB708E
:1024640013463B8004E07B685A1C7A60FA781A7041
:102474003B885A1E3A80002BF5D100BF0C37BD466D
:102484005DF8047B704780B487B000AF7860396032
:1024940000237B6100233B610023FB6000237B61FD
:1024A40076E001227B6902FA03F33B613B681B6817
:1024B4003A691340FB60FA683B699A4265D17B68CC
:1024C4001A687B695B00032101FA03F3DB431A40BA
:1024D4007B681A607B681A683B681B7919467B69BC
:1024E4005B0001FA03F31A437B681A603B681B79AB
:1024F400012B03D03B681B79022B2ED17B689A6891
:102504007B695B00032101FA03F3DB431A407B6818
:102514009A607B689A683B685B7919467B695B00C3
:1025240001FA03F31A437B689A607B685A687B69F3
:102534009BB2194601238B40DB431A407B685A60E7
:102544007B685B683A68927911467A6992B201FABB
:1025540002F292B21A437B685A607B68DA687B693C
:102564009BB25B00032101FA03F3DB431A407B684F
:10257400DA607B68DA683B68DB7919467B695B0063
:1025840001FA03F31A437B68DA607B6901337B61E8
:102594007B690F2B85D900BF1C37BD465DF8047BD2
:1025A400704780B483B000AF78600B467B801346DD
:1025B4007B707B78002B03D07B687A881A8302E0D7
:1025C4007B687A885A8300BF0C37BD465DF8047B6C
:1025D4007047000080B489B000AF78600023BB610D
:1025E40000237B610023FB6102233B610023FB602A
:1025F4000223BB60474B9B6803F00C03BB61BB69C0
:10260400042B07D0082B09D0002B3DD17B68424A0C
:102614001A603DE07B68414A1A6039E03D4B5B68D3
:102624009B0D03F00103FB603A4B5B6803F03F032F
:10263400BB60FB68002B0CD0384ABB68B2FBF3F3D9
:10264400344A52689209C2F3080202FB03F3FB61A5
:102654000BE0314ABB68B2FBF3F32E4A526892098D
:10266400C2F3080202FB03F3FB612A4B5B681B0CF9
:1026740003F0030301335B003B61FA693B69B2FB7E
:10268400F3F27B681A6003E07B68234A1A6000BF98
:10269400204B9B6803F0F003BB61BB691B09BB6162
:1026A4001F4ABB6913441B78DBB27B617B681A68E1
:1026B4007B69DA407B685A60164B9B6803F4E053ED
:1026C400BB61BB699B0ABB61154ABB6913441B7898
:1026D400DBB27B617B685A687B69DA407B689A600D
:1026E4000C4B9B6803F46043BB61BB695B0BBB6130
:1026F4000B4ABB6913441B78DBB27B617B685A6865
:102704007B69DA407B68DA6000BF2437BD465DF838
:10271400047B7047003802400024F40040787D01B7
:102724001800002080B483B000AF78600B46FB70C3
:10273400FB78002B06D00A4B1A6B09497B681343BC
:102744000B6306E0064B1A6B7B68DB4304491340BA
:102754000B6300BF0C37BD465DF8047B704700BFB8
:102764000038024080B485B000AF78607B689B8CF1
:10277400FB81FA897B68B3F970309BB2D31A9BB2A0
:10278400FB81B7F90E30002B01DA002309E07B68E6
:10279400B3F97430B7F90E209A4201DB002300E04C
:1027A400012318461437BD465DF8047B704780B496
:1027B40085B000AF78607B68DB8CFB81FA897B682D
:1027C400B3F972309BB2D31A9BB2FB81B7F90E30C6
:1027D400002B01DA002309E07B68B3F97630B7F9FE
:1027E4000E209A4201DB002300E00123184614372F
:1027F400BD465DF8047B704780B487B000AFF860D5
:10280400B96011461A460B46FB801346BB80FB6831
:102814001B88FB82BB681B88BB82B7F91620B7F9FB
:1028240004309A4201DB00231AE0B7F91420B7F907
:1028340006309A4201DC002312E0B7F91620B7F9FA
:1028440006309A4202DAFB68FA881A80B7F9142033
:10285400B7F904309A4202DDBB68BA881A800123B2
:1028640018461C37BD465DF8047B704780B582B0BE
:1028740000AF78607868FFF775FF0346002B01D13D
:10288400002308E07868FFF792FF0346002B01D18C
:10289400002300E0012318460837BD4680BD000030
:1028A40090B585B000AF78607B6800221A867B689B
:1028B400B3F92E30032B00F26D8101A252F823F0FC
:1028C400D52800087B290008212A0008DD2A0008F1
:1028D4007868FFF76CFF0346002B01D100235AE10F
:1028E4007B68B3F92430FB81B7F90E30BB817B6878
:1028F400B3F92C309AB2B7F90C309BB213449BB2A3
:102904001BB2BB817B68B3F970407B68B3F970304C
:102914009AB27B68B3F974309BB213449BB21BB276
:1029240007F10C0107F10E002246FFF765FF03468D
:10293400002B01D100232EE1B7F90E309AB27B6847
:10294400B3F924309BB2D31A9BB21AB27B681A86AD
:10295400B7F90E207B689A84B7F90C309AB2B7F9AC
:102964000E309BB2D31A9BB21BB2BB81B7F90C20B9
:102974007B689A850EE17868FFF7F4FE0346002B26
:1029840001D1002307E17B68B3F92630FB81B7F955
:102994000E30BB817B68B3F92C309AB2B7F90C3096
:1029A4009BB213449BB21BB2BB817B68B3F97240E8
:1029B4007B68B3F972309AB27B68B3F976309BB214
:1029C40013449BB21BB207F10C0107F10E0022461F
:1029D400FFF712FF0346002B01D10023DBE0B7F918
:1029E4000E309AB27B68B3F926309BB2D31A9BB2ED
:1029F4001AB27B681A86B7F90E207B68DA84B7F9B5
:102A04000C309AB2B7F90E309BB2D31A9BB21BB2F8
:102A1400BB81B7F90C207B689A85BBE07868FFF727
:102A2400C6FE0346002B01D10023B4E07B68B3F952
:102A34002430BB81B7F90C309BB201339BB21BB27B
:102A4400BB81B7F90C30FB81B7F90E309AB27B68C1
:102A5400B3F92C309BB2D31A9BB21BB2FB817B68B7
:102A6400B3F970407B68B3F970309AB27B68B3F9FC
:102A740074309BB213449BB21BB207F10C0107F1F3
:102A84000E002246FFF7B8FE0346002B01D10023B7
:102A940081E0B7F90C309AB2B7F90E309BB2D31A71
:102AA4009BB21AB27B689A85B7F90C309BB2013B92
:102AB4009BB21BB2BB817B68B3F924309AB2B7F9DD
:102AC4000C309BB2D31A9BB21AB27B681A86B7F940
:102AD4000C207B689A845DE07868FFF743FE034628
:102AE400002B01D1002356E07B68B3F92630BB816B
:102AF400B7F90C309BB201339BB21BB2BB81B7F95F
:102B04000C30FB81B7F90E309AB27B68B3F92C30E4
:102B14009BB2D31A9BB21BB2FB817B68B3F97240A0
:102B24007B68B3F972309AB27B68B3F976309BB2A2
:102B340013449BB21BB207F10C0107F10E002246AD
:102B4400FFF75AFE0346002B01D1002323E0B7F917
:102B54000C309AB2B7F90E309BB2D31A9BB21AB2A8
:102B64007B689A85B7F90C309BB2013B9BB21BB2D0
:102B7400BB817B68B3F926309AB2B7F90C309BB2AB
:102B8400D31A9BB21AB27B681A86B7F90C207B68F9
:102B9400DA8400BF012318461437BD4690BD00BF38
:102BA40080B584B000AF78607868FFF779FE03469B
:102BB400002B01D1002319E00023FB7312E07B6892
:102BC40003F14601FA7B1346DB009B1A5B00CA182B
:102BD4007B68B3F9303019461046FEF700F9FB7BE9
:102BE4000133FB73FB7B022BE9D901231846103711
:102BF400BD4680BD90B583B000AF78607B6893F824
:102C0400AF3003F00803002B06D07B68DC69002397
:102C140000220B217868A0477B6893F8AF3023F03B
:102C24000803DAB27B6883F8AF2000BF0C37BD46D7
:102C340090BD90B585B000AF78600B467B8013469D
:102C44003B807B883B813B887B817868FFF7D2FFA0
:102C54007B68002283F8AE207B68DC6907F10803F7
:102C640000220A217868A0470346FB81B7F90E3099
:102C7400002B08D07B6893F8AF3043F00803DAB236
:102C84007B6883F8AF20B7F90E3018461437BD4679
:102C940090BD90B583B000AF7860084611461A46DF
:102CA4000346FB700B46BB7013467B70FB78002B0E
:102CB40031D17B6893F8AE20BB781340DBB2002B94
:102CC40008D07B6893F8AF20BB781340DBB2BA78A6
:102CD4009A424BD17B68DC697B7819B2FB789AB253
:102CE40000237868A0477B6893F8AF305AB297F90D
:102CF4000230DB435BB213405BB2DAB27B6883F829
:102D0400AF207B6893F8AE20BB781343DAB27B68BC
:102D140083F8AE202AE07B6893F8AE20BB7813409A
:102D2400DBB2002B07D07B6893F8AF20BB7813404D
:102D3400DBB2002B1AD17B68DC697B7819B2FB7893
:102D44009AB200237868A0477B6893F8AF20BB78D9
:102D54001343DAB27B6883F8AF207B6893F8AE2024
:102D6400BB781343DAB27B6883F8AE2000BF0C371C
:102D7400BD4690BD80B582B000AF78600B46FB7055
:102D8400F9780D2304227868FFF783FF00BF083722
:102D9400BD4680BD80B582B000AF78600B46FB7045
:102DA400F9780E2302227868FFF773FF00BF083713
:102DB400BD4680BD80B582B000AF78600B46FB7025
:102DC400F9780F2301227868FFF763FF00BF083703
:102DD400BD4680BD90B583B000AF78600B467B8064
:102DE4007B68DC697A8800230C217868A04700BFDF
:102DF4000C37BD4690BD80B582B000AF78600B46FD
:102E04007B8007E04FF47A717868FFF7E3FF7B88F3
:102E1400013B7B807B88002BF4D100BF0837BD4683
:102E240080BD90B583B000AF78600B46FB707B68C3
:102E3400DC69FB789AB2002310217868A04700BFB0
:102E44000C37BD4690BD90B587B000AFF8600B4617
:102E54007A607B8110E07B681B78FB75FB68DC691A
:102E6400FB7D9AB200231021F868A0477B680133E8
:102E74007B607B89013B7B817B89002BEBD100BF8D
:102E84001C37BD4690BD80B584B000AFF860B96012
:102E940011461A460B46FB711346BB71FB6893F847
:102EA400B0305B08DBB203F00103DBB21946F8680B
:102EB400FFF780FFFB799BB2BA681946F868FFF701
:102EC400C2FFBB79002B14D0FB79BA681344BB60F2
:102ED400FB6893F8B03003F00103DBB21946F868DD
:102EE400FFF768FFBB799BB2BA681946F868FFF729
:102EF400AAFF00BF1037BD4680BD000080B584B076
:102F040000AF786039603B681B78FB73FB7B1B095F
:102F1400BB73FB7B03F00F037B73BB7B0F2B00F2B4
:102F2400248101A252F823F06F3100086D2F0008AC
:102F34006D2F00086D2F00086F3100086F310008F5
:102F44008D2F0008BF2F0008033000082F30000821
:102F54005B300008BB3000086F3100086F31000897
:102F64006F3100081B3100083B68591C7B7BBA7B1E
:102F74007868FFF788FFBB7B5A1C7B7B13441A4697
:102F84003B6813443B60EFE07B6893F8B03003F098
:102F94000103DBB219467868FFF70CFF7B7B99B21B
:102FA4003B6801331A467868FFF74DFF7B7B01339A
:102FB4001A463B6813443B60D6E07B6893F8B03014
:102FC4005B08DBB203F00103002B0CBF01230023D9
:102FD400DBB219467868FFF7EDFE7B7B002B07D048
:102FE4007B7B99B23B6801331A467868FFF72BFF65
:102FF4007B7B01331A463B6813443B60B4E03B6877
:1030040001333B603B681B78FB737B7B9BB21B02E9
:103014009AB2FB7B9BB213449BB219467868FFF7C4
:10302400EAFE3B6801333B609EE03B6801333B6052
:103034003B681B78FB737B7B9BB21B029AB2FB7BC6
:103044009BB213449BB219467868FFF7C3FE3B68F2
:1030540001333B6088E03B6801333B603B681B788D
:10306400FB733B6801333B603B681B783B733B68F5
:1030740001333B607B6893F8B03003F00103DBB2AB
:1030840019467868FFF796FE7B68B3F924301A4630
:103094007B68B3F920301A447B7B42FA03F3DAB23B
:1030A400FB7B1340DAB23B7B1343DBB219467868EF
:1030B400FFF7B7FE58E03B6801333B603B681B7881
:1030C400FB733B6801333B603B681B783B733B6895
:1030D40001333B607B6893F8B03003F00103DBB24B
:1030E40019467868FFF766FE7B68B3F926301A46FE
:1030F4007B68B3F922301A447B7B42FA03F3DAB2D9
:10310400FB7B1340DAB23B7B1343DBB2194678688E
:10311400FFF787FE28E07B7B9B08BB737B7B03F078
:1031240003037B73BB7B012B0CD0032B13D0002B2D
:1031340016D17B7B03F00103DBB219467868FFF7F5
:1031440019FE0DE07B7B03F00103DBB219467868BE
:10315400FFF720FE04E07B687A7B83F8B02000BF91
:103164003B6801333B6000BFCDE600BF1037BD466E
:1031740080BD00BF70B50D4D0D4C641BA41000261E
:10318400A64209D10B4D0C4C00F018F8641BA41096
:103194000026A64205D170BD55F8043B9847013678
:1031A400EEE755F8043B98470136F2E7583D00082E
:1031B400583D0008583D00085C3D0008F8B500BFC4
:1031C400F8BC08BC9E467047F8B500BFF8BC08BC04
:0431D4009E4670475C
:1031D8004E686F6D20330000200000004E6775793F
:1031E800656E205468616E68204E616D2000000095
:1031F8007563675F44726177537472696E67000024
:10320800F4113600102AA00000A0FF0062007F1011
:103218002BB00000B0FF0062009F102C700000006F
:10322800F4113600102AA00000A0FF0062008110EF
:103238002BB00000B0FF006200A0102C700000004E
:10324800F4113600102AA00000A0FF00A00000A082
:10325800FF00102BB00000B0FF0062009F102C7020
:1032680000000000F4113640113640102AA000007A
:10327800A0FF0062007F102BB80100B0FF006200C1
:103288009F102C7000000000F41136801136801059
:103298002AA00000A0FF00A00000A0FF00102BB093
:1032A8000000B0FF0062009F102C7000F410101096
:1032B80028F50000FDF1F58005F08005F18032F475
:1032C8001011800A10131020113A06102911360027
:1032D800142A0000007F142B0000009F102CF5001A
:1032E800BF01030204040102050B0DFFFE08FE08DE
:1032F800FE019303732006D399E711210BD4A1870C
:1033080025A72C077408220CD5A927255112253981
:103318002F002312D8C1E79CA449386C49366C4960
:103328009AE46400240FD6B127845352196F49A731
:103338003187002514D8C167D49244C9943807E26C
:10334800444B1225D389002612D8C1671C154D118C
:1033580047654824CBB6E834002709D399C7A23A71
:103368000B00280CD4A1274452E42DD31200290CB9
:10337800D4A147332D939C2229032A0AD4A1479329
:10338800A89273012B0BD6B1E7681A265127032C94
:1033980009D3996756A424022D09D5A9E761C8590C
:1033A800012E08D399675674002F0DD4A1A7645134
:1033B800166551968300300AD6B1A74E8AFFD34EC0
:1033C8003109D6B1276BA3DF09320CD6B1A74E8AD3
:1033D80068731C7418330DD6B1A74E8AA8A9A262C7
:1033E800DA09340FD6B16709B529512265D8441DC9
:1033F80006350FD6B1270E8A280EA91229A69D00D8
:10340800360DD6B1A74E8A7188149F7602370CD62E
:10341800B1270EA24DD4443B05380CD6B1A74E8A2D
:10342800D3A4F8B413390DD6B1A74E8A4F43A89840
:1034380076023A09D399A7D80145073B0BD399A738
:10344800D801454A22003C0AD5A967968C76120015
:103458003D0BD6B1E765D0814167043E09D5A96720
:1034680074B213013F0DD6B1A74E8AA819754CA79F
:10347800004017DBD9E76510D52C529A5A6A515289
:103488006A52C41C1C740A004112D8C1673D2A9AAA
:10349800A229D230249AA2E934004212D7B9671877
:1034A800248BA40C9245522465D049004310D8C1FE
:1034B800671D32491113D918D9869C084412D7B907
:1034C80067183245B2488AA4488A69C86900450E17
:1034D800D6B1270E8A280E8A681C7418460DD6B1F4
:1034E800270E8A280E91E84E024712D8C1671D326E
:1034F800491113595A34C9B6E434004813D7B96787
:10350800901449919461911449911449A70049086C
:10351800D39987147F074A0AD6B167107D31ED0425
:103528004B10D7B9679014D3908D43A648164D27F2
:103538004C0AD6B127FAE3A0C3004D16DAD1E7A4A6
:103548002ADBB22D4332244AC5B29822458A740632
:103558004E13D8C167B34CCAA4288925312DD2A2ED
:10356800E934004F12D8C1671D1549533445533407
:103578004911772A005010D7B96718248BA448CA74
:1035880020A9762A005114D8C1671D15495334451E
:1035980053944452C4214772085212D7B967182469
:1035A8008BA448CA20592445D229005311D7B9679A
:1035B8001922CB3AA44BA648D2909300540AD7B903
:1035C80067B8A97EA7015513D7B967901449911414
:1035D8004991144991A42127015610D8C167B368AD
:1035E80092A2299A22AE734E065714DBD9E72A59BC
:1035F800248BE462536CC3204AAAA433025811D81E
:10360800C167B3689222AEA322698AA6D300591271
:10361800D9C967161551B249E210EB800EE82C00A3
:103628005A0DD7B967B88AC6D13AEC14005B0AD4E8
:10363800A14717C99F16005C0DD4A147B3300BB33F
:1036480030CB11005D09D4A14727FFB2005E0CD52D
:10365800A9274943122551CE0D5F08D6B1E73F0D82
:10366800036007D399CE720E610DD6B1E73645D205
:103678009078527414620CD6B1271A8748F19721B2
:1036880027630CD5A9675D9444B3443B08640DD601
:10369800B16710A521F14F430E03650DD6B1E7368A
:1036A80029CAA0888AB413660CD6B1274FDA908944
:1036B800DE2900670CD6B1E7A624FE6908A50968CB
:1036C8000CD6B1271A8748F1DF61006909D39987B9
:1036D80044C577006A09D4A1874D7E91006B0FD647
:1036E800B127BA2843B40D9162D251006C08D3991E
:1036F80087147F076D0CD9C9E75B6252FCFF4E0542
:103708006E0BD6B1E794488AFF0E036F0AD6B1E76D
:103718003629FEB413700DD6B1E794488ABF0C91D0
:103728002802710CD6B1E7A624FE69082D00720B99
:10373800D4A127278322B96300730CD6B1E73629B1
:10374800D2AA987602740CD5A92769D210698E3A44
:1037580008750BD6B1E7A4F84F4A0E03760CD6B11C
:10376800E7A4F89464634E017711D8C1E755492C52
:10377800892591144DD1149D08780FD7B9E7419246
:1037880086501C228BA45300790CD6B1E7A4F8D339
:1037980090899A067A0CD6B1E734889AE3A0C300D8
:1037A8007B0CD5A9A7499A49D41C15007C08D39944
:1037B800C7A2FE057D0CD5A9A7889A51D29C3400D2
:1037C8007E0AD6B1E749A9E81C01A006D399E711FA
:1037D800A10AD4A167D0812CF202A20FD6B167CE7C
:1037E8002645A92599226D3906A30FD6B1274F4A38
:1037F800A40D996849EC3000A40ED6B1670B93214B
:10380800EA3424614E04A511D7B96708933091A40E
:10381800D2B069C3A6D300A60AD399C7A276246AF0
:1038280001A711D6B1A74E52324E912245E3124953
:103838001300A808D39987929C19A916DAD1E73AF8
:10384800A461164995288992308A962C4C879C0940
:10385800AA0CD5A9278D5192033B2B00AB0AD7B9E7
:10386800E7176F8ACE02AC0AD7B9E7CB20D7B900E1
:10387800AD09D5A9E761C85901AE18DAD1E73AA46C
:1038880061960C49944449944C9528C9C274C899C6
:1038980000AF08D39987766600B009D4A187958AC6
:1038A800CE09B10ED6B16715A561127564D851005D
:1038B800B209D399C796CA4E04B309D39987966CAF
:1038C800A702B409D39907929C0B00B50CD6B1E7AF
:1038D800A4F82F4B228A00B615D6B1A70E83922CD6
:1038E800C91229599225599225599200B708D39996
:1038F80067D04900B808D399E79C2800B909D3993B
:10390800C712A94E05BA0CD5A9274D49B4033B2BBC
:1039180000BB0BD7B9E7074553DC9900BC15D9C9DB
:10392800E790655A18A5510E446124264314E664AD
:1039380000BD14D9C9E790655A18A5510E246252E2
:103948008CC2682703BE15D9C9679EC22C4D42296F
:1039580007A2301293210A733200BF0CD6B1E7A830
:1039680063A26654A409C014D8C1CA919CB08E8AB7
:10397800A6688A340C89A6683A0DC114D8C18C731C
:10398800C23A2A9AA229D230249AA2E93400C2144F
:10399800D8C18B931C5E47455334451A864453342B
:1039A8009D06C315D8C14BC22487D751D1144D9158
:1039B8008621D1144DA701C414D8C1C7921C5E47F3
:1039C800455334451A864453349D06C514D8C18BD3
:1039D80093385E47455334451A864453349D06C68A
:1039E80015DAD1E7380CD9902AAA32488A388C924D
:1039F800280D3A03C711D8C1671D32491113D918C8
:103A0800D986341601C810D6B189736850447150EC
:103A180044E3A0C300C910D6B10B73685044715079
:103A280044E3A0C300CA11D6B10A931C1914511C4F
:103A380014D138E83000CB11D6B107921C191451B3
:103A48001C14D138E83000CC09D399C842C5DF012D
:103A5800CD08D399A92AFE0ECE0AD4A1899258F28C
:103A68007708CF0AD5A98D7240F37714D011D8C141
:103A7800671C4245939421917CD1869C0AD116D823
:103A8800C14BC224073565522645492C89699116D0
:103A98004DA701D214D8C1CB911C1E1549533445EA
:103AA80053344911772A00D313D8C18C73C2A8485C
:103AB8009AA2299AA2498AB85301D414D8C18B93DF
:103AC8001C1E154953344553344911772A00D5141F
:103AD800D8C14BC224874745D2144DD1144D52C486
:103AE8009D0AD614D8C1C7921C1E15495334455394
:103AF800344911772A00D70DD6B1E76419326D48D9
:103B0800249D08D813D8C1675D2245921625B12493
:103B1800CA6491929D0AD915D7B9CA811C931449D0
:103B280091144991144991A4212701DA14D7B94C69
:103B3800734C52244552244552244592869C04DBFA
:103B480015D7B94A931C9314499114499114499172
:103B5800A4212701DC14D7B947A21CB2488AA4487B
:103B68008AA4488A240D3909DD14D9C9CD811C16C7
:103B78001551B249E210EB800EE82C00DE10D7B9DF
:103B8800675007C92229923248AA4E05DF11D6B1DB
:103B9800A74E5222254A24255222254A4EE00FD606
:103BA800B127C4393445D29078527414E10FD6B194
:103BB800A784393645D29078527414E210D6B127CA
:103BC80084490E4D9134249E141D05E311D6B12766
:103BD8002451924353240D8927454701E40FD6B158
:103BE800A726393445D29078527414E510D6B127F7
:103BF8008449184E9134249E141D05E611D9C9E74D
:103C0800E330458A340C895131293B19E70DD5A990
:103C1800675D9444B3445B2601E80ED6B187EBD8C0
:103C2800A42883222AD24EE90FD6B1A7843936298F
:103C3800CAA0888AB413EA10D6B12784490E4D8ADF
:103C48003228A222ED04EB0FD6B1A726393429CAAF
:103C5800A0888AB413EC09D399CE42C57700ED0940
:103C6800D399079254F11DEE0AD39907929AE23B31
:103C780000EF09D39987924CF11DF00ED6B18793C6
:103C88004C4BC249F1A79D00F10ED6B1879328C9C4
:103C9800A14452FC7718F20BD6B187EBD8A4F8D31D
:103CA8004EF30CD6B1A784393629FEB413F40DD6D9
:103CB800B12784490E4D8A3FED04F50ED6B187939E
:103CC80028C9B149F1A79D00F60CD6B1A726393409
:103CD80029FEB413F70CD6B1E7A823C38EE8640015
:103CE800F810D8C1E7C31229DAA0299A22253B1572
:103CF800F90CD6B187EB90E23F29390CFA0DD6B111
:103D0800A78439A4F84F4A0E03FB0DD6B12784497E
:103D18008EF89F941C06FC0CD6B1A72639E27F5278
:103D28007218FD0ED6B1A78439A4F8D390899A06E3
:103D3800FE10D6B1271A874831255262192251043C
:103D4800FF0ED6B1A72639E29F864CD43400000076
:043D5800B9010008A5
:043D5C0095010008C5
:103D600000BD010500000000000000000102030486
:103D700006070809FF00000000000000010203041C
:083D8000010203040607080913
:040000050800026984
:00000001FF
